{"contracts/Core.sol":{"Core":{"abi":[{"inputs":[],"stateMutability":"nonpayable","type":"constructor"},{"inputs":[{"internalType":"address","name":"owner","type":"address"}],"name":"OwnableInvalidOwner","type":"error"},{"inputs":[{"internalType":"address","name":"account","type":"address"}],"name":"OwnableUnauthorizedAccount","type":"error"},{"anonymous":false,"inputs":[{"indexed":true,"internalType":"address","name":"previousOwner","type":"address"},{"indexed":true,"internalType":"address","name":"newOwner","type":"address"}],"name":"OwnershipTransferred","type":"event"},{"anonymous":false,"inputs":[{"indexed":true,"internalType":"uint256","name":"pluginId","type":"uint256"},{"indexed":true,"internalType":"address","name":"pluginAddress","type":"address"}],"name":"PluginAdded","type":"event"},{"anonymous":false,"inputs":[{"indexed":true,"internalType":"uint256","name":"pluginId","type":"uint256"},{"indexed":false,"internalType":"uint256","name":"input","type":"uint256"},{"indexed":false,"internalType":"uint256","name":"result","type":"uint256"}],"name":"PluginExecuted","type":"event"},{"anonymous":false,"inputs":[{"indexed":true,"internalType":"uint256","name":"pluginId","type":"uint256"}],"name":"PluginRemoved","type":"event"},{"anonymous":false,"inputs":[{"indexed":true,"internalType":"uint256","name":"pluginId","type":"uint256"},{"indexed":true,"internalType":"address","name":"newPluginAddress","type":"address"}],"name":"PluginUpdated","type":"event"},{"inputs":[{"internalType":"address","name":"pluginAddress","type":"address"}],"name":"addPlugin","outputs":[{"internalType":"uint256","name":"","type":"uint256"}],"stateMutability":"nonpayable","type":"function"},{"inputs":[{"internalType":"uint256","name":"pluginId","type":"uint256"},{"internalType":"uint256","name":"input","type":"uint256"}],"name":"executePlugin","outputs":[{"internalType":"uint256","name":"","type":"uint256"}],"stateMutability":"nonpayable","type":"function"},{"inputs":[{"internalType":"uint256","name":"pluginId","type":"uint256"}],"name":"getPluginAddress","outputs":[{"internalType":"address","name":"","type":"address"}],"stateMutability":"view","type":"function"},{"inputs":[],"name":"getPluginCount","outputs":[{"internalType":"uint256","name":"","type":"uint256"}],"stateMutability":"view","type":"function"},{"inputs":[],"name":"owner","outputs":[{"internalType":"address","name":"","type":"address"}],"stateMutability":"view","type":"function"},{"inputs":[{"internalType":"uint256","name":"pluginId","type":"uint256"}],"name":"removePlugin","outputs":[],"stateMutability":"nonpayable","type":"function"},{"inputs":[],"name":"renounceOwnership","outputs":[],"stateMutability":"nonpayable","type":"function"},{"inputs":[{"internalType":"address","name":"newOwner","type":"address"}],"name":"transferOwnership","outputs":[],"stateMutability":"nonpayable","type":"function"},{"inputs":[{"internalType":"uint256","name":"pluginId","type":"uint256"},{"internalType":"address","name":"newPluginAddress","type":"address"}],"name":"updatePlugin","outputs":[],"stateMutability":"nonpayable","type":"function"}],"evm":{"bytecode":{"linkReferences":{},"object":"608060405234801561001057600080fd5b50338061003757604051631e4fbdf760e01b81526000600482015260240160405180910390fd5b61004081610046565b50610096565b600080546001600160a01b038381166001600160a01b0319831681178455604051919092169283917f8be0079c531659141344cd1fd0a4f28419497f9722a3daafe3b4186f6b6457e09190a35050565b61078e806100a56000396000f3fe608060405234801561001057600080fd5b50600436106100935760003560e01c806372ceb3711161006657806372ceb371146100df5780638da5cb5b146100f2578063d8867fc814610117578063e74f24001461012a578063f2fde38b1461015357600080fd5b80632bd8ec4a146100985780632f9de2c2146100af57806337475aae146100c4578063715018a6146100d7575b600080fd5b6002545b6040519081526020015b60405180910390f35b6100c26100bd36600461060a565b610166565b005b6100c26100d2366004610636565b61028f565b6100c2610311565b61009c6100ed36600461064f565b610325565b6000546001600160a01b03165b6040516001600160a01b0390911681526020016100a6565b61009c610125366004610671565b61040e565b6100ff610138366004610636565b6000908152600160205260409020546001600160a01b031690565b6100c2610161366004610671565b61051b565b61016e610559565b6000828152600160205260409020546001600160a01b03166101ab5760405162461bcd60e51b81526004016101a290610693565b60405180910390fd5b6001600160a01b0381166102115760405162461bcd60e51b815260206004820152602760248201527f436f72653a206e657720706c7567696e20616464726573732063616e6e6f74206044820152666265207a65726f60c81b60648201526084016101a2565b61021a81610586565b6102365760405162461bcd60e51b81526004016101a2906106ca565b60008281526001602052604080822080546001600160a01b0319166001600160a01b0385169081179091559051909184917fbe7b6da119e2aa0902b74bd29b95bfe856215c95f8766824f2cb2eaebf5aa5be9190a35050565b610297610559565b6000818152600160205260409020546001600160a01b03166102cb5760405162461bcd60e51b81526004016101a290610693565b60008181526001602052604080822080546001600160a01b03191690555182917ff1eee53e8b3359d2edff9ad67d105fc65cc530701d0e8753a333188b46d7f77591a250565b610319610559565b61032360006105a3565b565b6000828152600160205260408120546001600160a01b03168061035a5760405162461bcd60e51b81526004016101a290610693565b604051637802039d60e11b8152600481018490526000906001600160a01b0383169063f004073a906024016020604051808303816000875af11580156103a4573d6000803e3d6000fd5b505050506040513d601f19601f820116820180604052508101906103c89190610718565b604080518681526020810183905291925086917f7f685f55905d672c2e2800240885a73eefd0a1abd89345fbe424be7ab2da1c7f910160405180910390a2949350505050565b6000610418610559565b6001600160a01b03821661047a5760405162461bcd60e51b815260206004820152602360248201527f436f72653a20706c7567696e20616464726573732063616e6e6f74206265207a60448201526265726f60e81b60648201526084016101a2565b61048382610586565b61049f5760405162461bcd60e51b81526004016101a2906106ca565b60028054600081815260016020526040812080546001600160a01b0319166001600160a01b03871617905582549192906104d883610731565b90915550506040516001600160a01b0384169082907f7573dd55c5ebcd09af313407c5627fa61cbc548542f4c66a55278d889e07c8bf90600090a390505b919050565b610523610559565b6001600160a01b03811661054d57604051631e4fbdf760e01b8152600060048201526024016101a2565b610556816105a3565b50565b6000546001600160a01b031633146103235760405163118cdaa760e01b81523360048201526024016101a2565b6000813b80820361059a5750600092915050565b50600192915050565b600080546001600160a01b038381166001600160a01b0319831681178455604051919092169283917f8be0079c531659141344cd1fd0a4f28419497f9722a3daafe3b4186f6b6457e09190a35050565b80356001600160a01b038116811461051657600080fd5b6000806040838503121561061d57600080fd5b8235915061062d602084016105f3565b90509250929050565b60006020828403121561064857600080fd5b5035919050565b6000806040838503121561066257600080fd5b50508035926020909101359150565b60006020828403121561068357600080fd5b61068c826105f3565b9392505050565b6020808252601b908201527f436f72653a20706c7567696e20646f6573206e6f742065786973740000000000604082015260600190565b6020808252602e908201527f436f72653a2061646472657373206d75737420696d706c656d656e742049506c60408201526d7567696e20696e7465726661636560901b606082015260800190565b60006020828403121561072a57600080fd5b5051919050565b60006001820161075157634e487b7160e01b600052601160045260246000fd5b506001019056fea2646970667358221220f93acae1079805f68b22ced665e157693d7ec17fe481ed5acba83e382cdebdb464736f6c63430008140033","opcodes":"PUSH1 0x80 PUSH1 0x40 MSTORE CALLVALUE DUP1 ISZERO PUSH2 0x10 JUMPI PUSH1 0x0 DUP1 REVERT JUMPDEST POP CALLER DUP1 PUSH2 0x37 JUMPI PUSH1 0x40 MLOAD PUSH4 0x1E4FBDF7 PUSH1 0xE0 SHL DUP2 MSTORE PUSH1 0x0 PUSH1 0x4 DUP3 ADD MSTORE PUSH1 0x24 ADD PUSH1 0x40 MLOAD DUP1 SWAP2 SUB SWAP1 REVERT JUMPDEST PUSH2 0x40 DUP2 PUSH2 0x46 JUMP JUMPDEST POP PUSH2 0x96 JUMP JUMPDEST PUSH1 0x0 DUP1 SLOAD PUSH1 0x1 PUSH1 0x1 PUSH1 0xA0 SHL SUB DUP4 DUP2 AND PUSH1 0x1 PUSH1 0x1 PUSH1 0xA0 SHL SUB NOT DUP4 AND DUP2 OR DUP5 SSTORE PUSH1 0x40 MLOAD SWAP2 SWAP1 SWAP3 AND SWAP3 DUP4 SWAP2 PUSH32 0x8BE0079C531659141344CD1FD0A4F28419497F9722A3DAAFE3B4186F6B6457E0 SWAP2 SWAP1 LOG3 POP POP JUMP JUMPDEST PUSH2 0x78E DUP1 PUSH2 0xA5 PUSH1 0x0 CODECOPY PUSH1 0x0 RETURN INVALID PUSH1 0x80 PUSH1 0x40 MSTORE CALLVALUE DUP1 ISZERO PUSH2 0x10 JUMPI PUSH1 0x0 DUP1 REVERT JUMPDEST POP PUSH1 0x4 CALLDATASIZE LT PUSH2 0x93 JUMPI PUSH1 0x0 CALLDATALOAD PUSH1 0xE0 SHR DUP1 PUSH4 0x72CEB371 GT PUSH2 0x66 JUMPI DUP1 PUSH4 0x72CEB371 EQ PUSH2 0xDF JUMPI DUP1 PUSH4 0x8DA5CB5B EQ PUSH2 0xF2 JUMPI DUP1 PUSH4 0xD8867FC8 EQ PUSH2 0x117 JUMPI DUP1 PUSH4 0xE74F2400 EQ PUSH2 0x12A JUMPI DUP1 PUSH4 0xF2FDE38B EQ PUSH2 0x153 JUMPI PUSH1 0x0 DUP1 REVERT JUMPDEST DUP1 PUSH4 0x2BD8EC4A EQ PUSH2 0x98 JUMPI DUP1 PUSH4 0x2F9DE2C2 EQ PUSH2 0xAF JUMPI DUP1 PUSH4 0x37475AAE EQ PUSH2 0xC4 JUMPI DUP1 PUSH4 0x715018A6 EQ PUSH2 0xD7 JUMPI JUMPDEST PUSH1 0x0 DUP1 REVERT JUMPDEST PUSH1 0x2 SLOAD JUMPDEST PUSH1 0x40 MLOAD SWAP1 DUP2 MSTORE PUSH1 0x20 ADD JUMPDEST PUSH1 0x40 MLOAD DUP1 SWAP2 SUB SWAP1 RETURN JUMPDEST PUSH2 0xC2 PUSH2 0xBD CALLDATASIZE PUSH1 0x4 PUSH2 0x60A JUMP JUMPDEST PUSH2 0x166 JUMP JUMPDEST STOP JUMPDEST PUSH2 0xC2 PUSH2 0xD2 CALLDATASIZE PUSH1 0x4 PUSH2 0x636 JUMP JUMPDEST PUSH2 0x28F JUMP JUMPDEST PUSH2 0xC2 PUSH2 0x311 JUMP JUMPDEST PUSH2 0x9C PUSH2 0xED CALLDATASIZE PUSH1 0x4 PUSH2 0x64F JUMP JUMPDEST PUSH2 0x325 JUMP JUMPDEST PUSH1 0x0 SLOAD PUSH1 0x1 PUSH1 0x1 PUSH1 0xA0 SHL SUB AND JUMPDEST PUSH1 0x40 MLOAD PUSH1 0x1 PUSH1 0x1 PUSH1 0xA0 SHL SUB SWAP1 SWAP2 AND DUP2 MSTORE PUSH1 0x20 ADD PUSH2 0xA6 JUMP JUMPDEST PUSH2 0x9C PUSH2 0x125 CALLDATASIZE PUSH1 0x4 PUSH2 0x671 JUMP JUMPDEST PUSH2 0x40E JUMP JUMPDEST PUSH2 0xFF PUSH2 0x138 CALLDATASIZE PUSH1 0x4 PUSH2 0x636 JUMP JUMPDEST PUSH1 0x0 SWAP1 DUP2 MSTORE PUSH1 0x1 PUSH1 0x20 MSTORE PUSH1 0x40 SWAP1 KECCAK256 SLOAD PUSH1 0x1 PUSH1 0x1 PUSH1 0xA0 SHL SUB AND SWAP1 JUMP JUMPDEST PUSH2 0xC2 PUSH2 0x161 CALLDATASIZE PUSH1 0x4 PUSH2 0x671 JUMP JUMPDEST PUSH2 0x51B JUMP JUMPDEST PUSH2 0x16E PUSH2 0x559 JUMP JUMPDEST PUSH1 0x0 DUP3 DUP2 MSTORE PUSH1 0x1 PUSH1 0x20 MSTORE PUSH1 0x40 SWAP1 KECCAK256 SLOAD PUSH1 0x1 PUSH1 0x1 PUSH1 0xA0 SHL SUB AND PUSH2 0x1AB JUMPI PUSH1 0x40 MLOAD PUSH3 0x461BCD PUSH1 0xE5 SHL DUP2 MSTORE PUSH1 0x4 ADD PUSH2 0x1A2 SWAP1 PUSH2 0x693 JUMP JUMPDEST PUSH1 0x40 MLOAD DUP1 SWAP2 SUB SWAP1 REVERT JUMPDEST PUSH1 0x1 PUSH1 0x1 PUSH1 0xA0 SHL SUB DUP2 AND PUSH2 0x211 JUMPI PUSH1 0x40 MLOAD PUSH3 0x461BCD PUSH1 0xE5 SHL DUP2 MSTORE PUSH1 0x20 PUSH1 0x4 DUP3 ADD MSTORE PUSH1 0x27 PUSH1 0x24 DUP3 ADD MSTORE PUSH32 0x436F72653A206E657720706C7567696E20616464726573732063616E6E6F7420 PUSH1 0x44 DUP3 ADD MSTORE PUSH7 0x6265207A65726F PUSH1 0xC8 SHL PUSH1 0x64 DUP3 ADD MSTORE PUSH1 0x84 ADD PUSH2 0x1A2 JUMP JUMPDEST PUSH2 0x21A DUP2 PUSH2 0x586 JUMP JUMPDEST PUSH2 0x236 JUMPI PUSH1 0x40 MLOAD PUSH3 0x461BCD PUSH1 0xE5 SHL DUP2 MSTORE PUSH1 0x4 ADD PUSH2 0x1A2 SWAP1 PUSH2 0x6CA JUMP JUMPDEST PUSH1 0x0 DUP3 DUP2 MSTORE PUSH1 0x1 PUSH1 0x20 MSTORE PUSH1 0x40 DUP1 DUP3 KECCAK256 DUP1 SLOAD PUSH1 0x1 PUSH1 0x1 PUSH1 0xA0 SHL SUB NOT AND PUSH1 0x1 PUSH1 0x1 PUSH1 0xA0 SHL SUB DUP6 AND SWAP1 DUP2 OR SWAP1 SWAP2 SSTORE SWAP1 MLOAD SWAP1 SWAP2 DUP5 SWAP2 PUSH32 0xBE7B6DA119E2AA0902B74BD29B95BFE856215C95F8766824F2CB2EAEBF5AA5BE SWAP2 SWAP1 LOG3 POP POP JUMP JUMPDEST PUSH2 0x297 PUSH2 0x559 JUMP JUMPDEST PUSH1 0x0 DUP2 DUP2 MSTORE PUSH1 0x1 PUSH1 0x20 MSTORE PUSH1 0x40 SWAP1 KECCAK256 SLOAD PUSH1 0x1 PUSH1 0x1 PUSH1 0xA0 SHL SUB AND PUSH2 0x2CB JUMPI PUSH1 0x40 MLOAD PUSH3 0x461BCD PUSH1 0xE5 SHL DUP2 MSTORE PUSH1 0x4 ADD PUSH2 0x1A2 SWAP1 PUSH2 0x693 JUMP JUMPDEST PUSH1 0x0 DUP2 DUP2 MSTORE PUSH1 0x1 PUSH1 0x20 MSTORE PUSH1 0x40 DUP1 DUP3 KECCAK256 DUP1 SLOAD PUSH1 0x1 PUSH1 0x1 PUSH1 0xA0 SHL SUB NOT AND SWAP1 SSTORE MLOAD DUP3 SWAP2 PUSH32 0xF1EEE53E8B3359D2EDFF9AD67D105FC65CC530701D0E8753A333188B46D7F775 SWAP2 LOG2 POP JUMP JUMPDEST PUSH2 0x319 PUSH2 0x559 JUMP JUMPDEST PUSH2 0x323 PUSH1 0x0 PUSH2 0x5A3 JUMP JUMPDEST JUMP JUMPDEST PUSH1 0x0 DUP3 DUP2 MSTORE PUSH1 0x1 PUSH1 0x20 MSTORE PUSH1 0x40 DUP2 KECCAK256 SLOAD PUSH1 0x1 PUSH1 0x1 PUSH1 0xA0 SHL SUB AND DUP1 PUSH2 0x35A JUMPI PUSH1 0x40 MLOAD PUSH3 0x461BCD PUSH1 0xE5 SHL DUP2 MSTORE PUSH1 0x4 ADD PUSH2 0x1A2 SWAP1 PUSH2 0x693 JUMP JUMPDEST PUSH1 0x40 MLOAD PUSH4 0x7802039D PUSH1 0xE1 SHL DUP2 MSTORE PUSH1 0x4 DUP2 ADD DUP5 SWAP1 MSTORE PUSH1 0x0 SWAP1 PUSH1 0x1 PUSH1 0x1 PUSH1 0xA0 SHL SUB DUP4 AND SWAP1 PUSH4 0xF004073A SWAP1 PUSH1 0x24 ADD PUSH1 0x20 PUSH1 0x40 MLOAD DUP1 DUP4 SUB DUP2 PUSH1 0x0 DUP8 GAS CALL ISZERO DUP1 ISZERO PUSH2 0x3A4 JUMPI RETURNDATASIZE PUSH1 0x0 DUP1 RETURNDATACOPY RETURNDATASIZE PUSH1 0x0 REVERT JUMPDEST POP POP POP POP PUSH1 0x40 MLOAD RETURNDATASIZE PUSH1 0x1F NOT PUSH1 0x1F DUP3 ADD AND DUP3 ADD DUP1 PUSH1 0x40 MSTORE POP DUP2 ADD SWAP1 PUSH2 0x3C8 SWAP2 SWAP1 PUSH2 0x718 JUMP JUMPDEST PUSH1 0x40 DUP1 MLOAD DUP7 DUP2 MSTORE PUSH1 0x20 DUP2 ADD DUP4 SWAP1 MSTORE SWAP2 SWAP3 POP DUP7 SWAP2 PUSH32 0x7F685F55905D672C2E2800240885A73EEFD0A1ABD89345FBE424BE7AB2DA1C7F SWAP2 ADD PUSH1 0x40 MLOAD DUP1 SWAP2 SUB SWAP1 LOG2 SWAP5 SWAP4 POP POP POP POP JUMP JUMPDEST PUSH1 0x0 PUSH2 0x418 PUSH2 0x559 JUMP JUMPDEST PUSH1 0x1 PUSH1 0x1 PUSH1 0xA0 SHL SUB DUP3 AND PUSH2 0x47A JUMPI PUSH1 0x40 MLOAD PUSH3 0x461BCD PUSH1 0xE5 SHL DUP2 MSTORE PUSH1 0x20 PUSH1 0x4 DUP3 ADD MSTORE PUSH1 0x23 PUSH1 0x24 DUP3 ADD MSTORE PUSH32 0x436F72653A20706C7567696E20616464726573732063616E6E6F74206265207A PUSH1 0x44 DUP3 ADD MSTORE PUSH3 0x65726F PUSH1 0xE8 SHL PUSH1 0x64 DUP3 ADD MSTORE PUSH1 0x84 ADD PUSH2 0x1A2 JUMP JUMPDEST PUSH2 0x483 DUP3 PUSH2 0x586 JUMP JUMPDEST PUSH2 0x49F JUMPI PUSH1 0x40 MLOAD PUSH3 0x461BCD PUSH1 0xE5 SHL DUP2 MSTORE PUSH1 0x4 ADD PUSH2 0x1A2 SWAP1 PUSH2 0x6CA JUMP JUMPDEST PUSH1 0x2 DUP1 SLOAD PUSH1 0x0 DUP2 DUP2 MSTORE PUSH1 0x1 PUSH1 0x20 MSTORE PUSH1 0x40 DUP2 KECCAK256 DUP1 SLOAD PUSH1 0x1 PUSH1 0x1 PUSH1 0xA0 SHL SUB NOT AND PUSH1 0x1 PUSH1 0x1 PUSH1 0xA0 SHL SUB DUP8 AND OR SWAP1 SSTORE DUP3 SLOAD SWAP2 SWAP3 SWAP1 PUSH2 0x4D8 DUP4 PUSH2 0x731 JUMP JUMPDEST SWAP1 SWAP2 SSTORE POP POP PUSH1 0x40 MLOAD PUSH1 0x1 PUSH1 0x1 PUSH1 0xA0 SHL SUB DUP5 AND SWAP1 DUP3 SWAP1 PUSH32 0x7573DD55C5EBCD09AF313407C5627FA61CBC548542F4C66A55278D889E07C8BF SWAP1 PUSH1 0x0 SWAP1 LOG3 SWAP1 POP JUMPDEST SWAP2 SWAP1 POP JUMP JUMPDEST PUSH2 0x523 PUSH2 0x559 JUMP JUMPDEST PUSH1 0x1 PUSH1 0x1 PUSH1 0xA0 SHL SUB DUP2 AND PUSH2 0x54D JUMPI PUSH1 0x40 MLOAD PUSH4 0x1E4FBDF7 PUSH1 0xE0 SHL DUP2 MSTORE PUSH1 0x0 PUSH1 0x4 DUP3 ADD MSTORE PUSH1 0x24 ADD PUSH2 0x1A2 JUMP JUMPDEST PUSH2 0x556 DUP2 PUSH2 0x5A3 JUMP JUMPDEST POP JUMP JUMPDEST PUSH1 0x0 SLOAD PUSH1 0x1 PUSH1 0x1 PUSH1 0xA0 SHL SUB AND CALLER EQ PUSH2 0x323 JUMPI PUSH1 0x40 MLOAD PUSH4 0x118CDAA7 PUSH1 0xE0 SHL DUP2 MSTORE CALLER PUSH1 0x4 DUP3 ADD MSTORE PUSH1 0x24 ADD PUSH2 0x1A2 JUMP JUMPDEST PUSH1 0x0 DUP2 EXTCODESIZE DUP1 DUP3 SUB PUSH2 0x59A JUMPI POP PUSH1 0x0 SWAP3 SWAP2 POP POP JUMP JUMPDEST POP PUSH1 0x1 SWAP3 SWAP2 POP POP JUMP JUMPDEST PUSH1 0x0 DUP1 SLOAD PUSH1 0x1 PUSH1 0x1 PUSH1 0xA0 SHL SUB DUP4 DUP2 AND PUSH1 0x1 PUSH1 0x1 PUSH1 0xA0 SHL SUB NOT DUP4 AND DUP2 OR DUP5 SSTORE PUSH1 0x40 MLOAD SWAP2 SWAP1 SWAP3 AND SWAP3 DUP4 SWAP2 PUSH32 0x8BE0079C531659141344CD1FD0A4F28419497F9722A3DAAFE3B4186F6B6457E0 SWAP2 SWAP1 LOG3 POP POP JUMP JUMPDEST DUP1 CALLDATALOAD PUSH1 0x1 PUSH1 0x1 PUSH1 0xA0 SHL SUB DUP2 AND DUP2 EQ PUSH2 0x516 JUMPI PUSH1 0x0 DUP1 REVERT JUMPDEST PUSH1 0x0 DUP1 PUSH1 0x40 DUP4 DUP6 SUB SLT ISZERO PUSH2 0x61D JUMPI PUSH1 0x0 DUP1 REVERT JUMPDEST DUP3 CALLDATALOAD SWAP2 POP PUSH2 0x62D PUSH1 0x20 DUP5 ADD PUSH2 0x5F3 JUMP JUMPDEST SWAP1 POP SWAP3 POP SWAP3 SWAP1 POP JUMP JUMPDEST PUSH1 0x0 PUSH1 0x20 DUP3 DUP5 SUB SLT ISZERO PUSH2 0x648 JUMPI PUSH1 0x0 DUP1 REVERT JUMPDEST POP CALLDATALOAD SWAP2 SWAP1 POP JUMP JUMPDEST PUSH1 0x0 DUP1 PUSH1 0x40 DUP4 DUP6 SUB SLT ISZERO PUSH2 0x662 JUMPI PUSH1 0x0 DUP1 REVERT JUMPDEST POP POP DUP1 CALLDATALOAD SWAP3 PUSH1 0x20 SWAP1 SWAP2 ADD CALLDATALOAD SWAP2 POP JUMP JUMPDEST PUSH1 0x0 PUSH1 0x20 DUP3 DUP5 SUB SLT ISZERO PUSH2 0x683 JUMPI PUSH1 0x0 DUP1 REVERT JUMPDEST PUSH2 0x68C DUP3 PUSH2 0x5F3 JUMP JUMPDEST SWAP4 SWAP3 POP POP POP JUMP JUMPDEST PUSH1 0x20 DUP1 DUP3 MSTORE PUSH1 0x1B SWAP1 DUP3 ADD MSTORE PUSH32 0x436F72653A20706C7567696E20646F6573206E6F742065786973740000000000 PUSH1 0x40 DUP3 ADD MSTORE PUSH1 0x60 ADD SWAP1 JUMP JUMPDEST PUSH1 0x20 DUP1 DUP3 MSTORE PUSH1 0x2E SWAP1 DUP3 ADD MSTORE PUSH32 0x436F72653A2061646472657373206D75737420696D706C656D656E742049506C PUSH1 0x40 DUP3 ADD MSTORE PUSH14 0x7567696E20696E74657266616365 PUSH1 0x90 SHL PUSH1 0x60 DUP3 ADD MSTORE PUSH1 0x80 ADD SWAP1 JUMP JUMPDEST PUSH1 0x0 PUSH1 0x20 DUP3 DUP5 SUB SLT ISZERO PUSH2 0x72A JUMPI PUSH1 0x0 DUP1 REVERT JUMPDEST POP MLOAD SWAP2 SWAP1 POP JUMP JUMPDEST PUSH1 0x0 PUSH1 0x1 DUP3 ADD PUSH2 0x751 JUMPI PUSH4 0x4E487B71 PUSH1 0xE0 SHL PUSH1 0x0 MSTORE PUSH1 0x11 PUSH1 0x4 MSTORE PUSH1 0x24 PUSH1 0x0 REVERT JUMPDEST POP PUSH1 0x1 ADD SWAP1 JUMP INVALID LOG2 PUSH5 0x6970667358 0x22 SLT KECCAK256 0xF9 GASPRICE 0xCA 0xE1 SMOD SWAP9 SDIV 0xF6 DUP12 0x22 0xCE 0xD6 PUSH6 0xE157693D7EC1 PUSH32 0xE481ED5ACBA83E382CDEBDB464736F6C63430008140033000000000000000000 "},"methodIdentifiers":{"addPlugin(address)":"d8867fc8","executePlugin(uint256,uint256)":"72ceb371","getPluginAddress(uint256)":"e74f2400","getPluginCount()":"2bd8ec4a","owner()":"8da5cb5b","removePlugin(uint256)":"37475aae","renounceOwnership()":"715018a6","transferOwnership(address)":"f2fde38b","updatePlugin(uint256,address)":"2f9de2c2"}}}}}