{"contracts/ExamplePlugin.sol":{"ExamplePlugin":{"abi":[{"inputs":[{"internalType":"uint256","name":"_factor","type":"uint256"}],"stateMutability":"nonpayable","type":"constructor"},{"anonymous":false,"inputs":[{"indexed":false,"internalType":"uint256","name":"input","type":"uint256"},{"indexed":false,"internalType":"uint256","name":"result","type":"uint256"}],"name":"ActionPerformed","type":"event"},{"inputs":[],"name":"getFactor","outputs":[{"internalType":"uint256","name":"","type":"uint256"}],"stateMutability":"view","type":"function"},{"inputs":[{"internalType":"uint256","name":"input","type":"uint256"}],"name":"performAction","outputs":[{"internalType":"uint256","name":"","type":"uint256"}],"stateMutability":"nonpayable","type":"function"}],"evm":{"bytecode":{"linkReferences":{},"object":"60a060405234801561001057600080fd5b5060405161024238038061024283398101604081905261002f916100a3565b6000811161009b5760405162461bcd60e51b815260206004820152602f60248201527f4578616d706c65506c7567696e3a20666163746f72206d75737420626520677260448201526e6561746572207468616e207a65726f60881b606482015260840160405180910390fd5b6080526100bc565b6000602082840312156100b557600080fd5b5051919050565b6080516101666100dc60003960008181603d0152608501526101666000f3fe608060405234801561001057600080fd5b50600436106100365760003560e01c80635184cc431461003b578063f004073a1461006f575b600080fd5b7f00000000000000000000000000000000000000000000000000000000000000005b60405190815260200160405180910390f35b61005d61007d3660046100ec565b6000806100aa7f000000000000000000000000000000000000000000000000000000000000000084610105565b60408051858152602081018390529192507fd13d5694c0f3c0d4f057e82e8626c2d514ec5278c36c4361b63a9a8ff627d9b4910160405180910390a192915050565b6000602082840312156100fe57600080fd5b5035919050565b808202811582820484141761012a57634e487b7160e01b600052601160045260246000fd5b9291505056fea26469706673582212200e650ee7409d865c9349a61b3c80b1f59620c122d8be7aa3ed545266e929f9d064736f6c63430008140033","opcodes":"PUSH1 0xA0 PUSH1 0x40 MSTORE CALLVALUE DUP1 ISZERO PUSH2 0x10 JUMPI PUSH1 0x0 DUP1 REVERT JUMPDEST POP PUSH1 0x40 MLOAD PUSH2 0x242 CODESIZE SUB DUP1 PUSH2 0x242 DUP4 CODECOPY DUP2 ADD PUSH1 0x40 DUP2 SWAP1 MSTORE PUSH2 0x2F SWAP2 PUSH2 0xA3 JUMP JUMPDEST PUSH1 0x0 DUP2 GT PUSH2 0x9B JUMPI PUSH1 0x40 MLOAD PUSH3 0x461BCD PUSH1 0xE5 SHL DUP2 MSTORE PUSH1 0x20 PUSH1 0x4 DUP3 ADD MSTORE PUSH1 0x2F PUSH1 0x24 DUP3 ADD MSTORE PUSH32 0x4578616D706C65506C7567696E3A20666163746F72206D757374206265206772 PUSH1 0x44 DUP3 ADD MSTORE PUSH15 0x6561746572207468616E207A65726F PUSH1 0x88 SHL PUSH1 0x64 DUP3 ADD MSTORE PUSH1 0x84 ADD PUSH1 0x40 MLOAD DUP1 SWAP2 SUB SWAP1 REVERT JUMPDEST PUSH1 0x80 MSTORE PUSH2 0xBC JUMP JUMPDEST PUSH1 0x0 PUSH1 0x20 DUP3 DUP5 SUB SLT ISZERO PUSH2 0xB5 JUMPI PUSH1 0x0 DUP1 REVERT JUMPDEST POP MLOAD SWAP2 SWAP1 POP JUMP JUMPDEST PUSH1 0x80 MLOAD PUSH2 0x166 PUSH2 0xDC PUSH1 0x0 CODECOPY PUSH1 0x0 DUP2 DUP2 PUSH1 0x3D ADD MSTORE PUSH1 0x85 ADD MSTORE PUSH2 0x166 PUSH1 0x0 RETURN INVALID PUSH1 0x80 PUSH1 0x40 MSTORE CALLVALUE DUP1 ISZERO PUSH2 0x10 JUMPI PUSH1 0x0 DUP1 REVERT JUMPDEST POP PUSH1 0x4 CALLDATASIZE LT PUSH2 0x36 JUMPI PUSH1 0x0 CALLDATALOAD PUSH1 0xE0 SHR DUP1 PUSH4 0x5184CC43 EQ PUSH2 0x3B JUMPI DUP1 PUSH4 0xF004073A EQ PUSH2 0x6F JUMPI JUMPDEST PUSH1 0x0 DUP1 REVERT JUMPDEST PUSH32 0x0 JUMPDEST PUSH1 0x40 MLOAD SWAP1 DUP2 MSTORE PUSH1 0x20 ADD PUSH1 0x40 MLOAD DUP1 SWAP2 SUB SWAP1 RETURN JUMPDEST PUSH2 0x5D PUSH2 0x7D CALLDATASIZE PUSH1 0x4 PUSH2 0xEC JUMP JUMPDEST PUSH1 0x0 DUP1 PUSH2 0xAA PUSH32 0x0 DUP5 PUSH2 0x105 JUMP JUMPDEST PUSH1 0x40 DUP1 MLOAD DUP6 DUP2 MSTORE PUSH1 0x20 DUP2 ADD DUP4 SWAP1 MSTORE SWAP2 SWAP3 POP PUSH32 0xD13D5694C0F3C0D4F057E82E8626C2D514EC5278C36C4361B63A9A8FF627D9B4 SWAP2 ADD PUSH1 0x40 MLOAD DUP1 SWAP2 SUB SWAP1 LOG1 SWAP3 SWAP2 POP POP JUMP JUMPDEST PUSH1 0x0 PUSH1 0x20 DUP3 DUP5 SUB SLT ISZERO PUSH2 0xFE JUMPI PUSH1 0x0 DUP1 REVERT JUMPDEST POP CALLDATALOAD SWAP2 SWAP1 POP JUMP JUMPDEST DUP1 DUP3 MUL DUP2 ISZERO DUP3 DUP3 DIV DUP5 EQ OR PUSH2 0x12A JUMPI PUSH4 0x4E487B71 PUSH1 0xE0 SHL PUSH1 0x0 MSTORE PUSH1 0x11 PUSH1 0x4 MSTORE PUSH1 0x24 PUSH1 0x0 REVERT JUMPDEST SWAP3 SWAP2 POP POP JUMP INVALID LOG2 PUSH5 0x6970667358 0x22 SLT KECCAK256 0xE PUSH6 0xEE7409D865C SWAP4 0x49 0xA6 SHL EXTCODECOPY DUP1 0xB1 CREATE2 SWAP7 KECCAK256 0xC1 0x22 0xD8 0xBE PUSH27 0xA3ED545266E929F9D064736F6C6343000814003300000000000000 "},"methodIdentifiers":{"getFactor()":"5184cc43","performAction(uint256)":"f004073a"}}}}}