{
  "_format": "hh-sol-artifact-1",
  "contractName": "ExamplePlugin",
  "sourceName": "contracts/ExamplePlugin.sol",
  "abi": [
    {
      "inputs": [
        {
          "internalType": "uint256",
          "name": "_factor",
          "type": "uint256"
        }
      ],
      "stateMutability": "nonpayable",
      "type": "constructor"
    },
    {
      "anonymous": false,
      "inputs": [
        {
          "indexed": false,
          "internalType": "uint256",
          "name": "input",
          "type": "uint256"
        },
        {
          "indexed": false,
          "internalType": "uint256",
          "name": "result",
          "type": "uint256"
        }
      ],
      "name": "ActionPerformed",
      "type": "event"
    },
    {
      "inputs": [
        {
          "internalType": "uint256",
          "name": "input",
          "type": "uint256"
        }
      ],
      "name": "calculateResult",
      "outputs": [
        {
          "internalType": "uint256",
          "name": "",
          "type": "uint256"
        }
      ],
      "stateMutability": "view",
      "type": "function"
    },
    {
      "inputs": [],
      "name": "getFactor",
      "outputs": [
        {
          "internalType": "uint256",
          "name": "",
          "type": "uint256"
        }
      ],
      "stateMutability": "view",
      "type": "function"
    },
    {
      "inputs": [
        {
          "internalType": "uint256",
          "name": "input",
          "type": "uint256"
        }
      ],
      "name": "performAction",
      "outputs": [
        {
          "internalType": "uint256",
          "name": "",
          "type": "uint256"
        }
      ],
      "stateMutability": "nonpayable",
      "type": "function"
    }
  ],
  "bytecode": "0x60a060405234801561001057600080fd5b5060405161029738038061029783398101604081905261002f916100a3565b6000811161009b5760405162461bcd60e51b815260206004820152602f60248201527f4578616d706c65506c7567696e3a20666163746f72206d75737420626520677260448201526e6561746572207468616e207a65726f60881b606482015260840160405180910390fd5b6080526100bc565b6000602082840312156100b557600080fd5b5051919050565b6080516101b56100e26000396000818160480152818160a7015260da01526101b56000f3fe608060405234801561001057600080fd5b50600436106100415760003560e01c80635184cc43146100465780638c51fedb1461007a578063f004073a1461008d575b600080fd5b7f00000000000000000000000000000000000000000000000000000000000000005b60405190815260200160405180910390f35b610068610088366004610141565b6100a0565b61006861009b366004610141565b6100d2565b60006100cc7f00000000000000000000000000000000000000000000000000000000000000008361015a565b92915050565b6000806100ff7f00000000000000000000000000000000000000000000000000000000000000008461015a565b60408051858152602081018390529192507fd13d5694c0f3c0d4f057e82e8626c2d514ec5278c36c4361b63a9a8ff627d9b4910160405180910390a192915050565b60006020828403121561015357600080fd5b5035919050565b80820281158282048414176100cc57634e487b7160e01b600052601160045260246000fdfea264697066735822122094a1e8e448738adebdf7252703f8500c85ffbf739c1b8631b175b46394d08a0e64736f6c63430008140033",
  "linkReferences": {},
  "deployedLinkReferences": {}
}