{
  "_format": "hh-sol-artifact-1",
  "contractName": "Core",
  "sourceName": "contracts/Core.sol",
  "abi": [
    {
      "inputs": [],
      "stateMutability": "nonpayable",
      "type": "constructor"
    },
    {
      "inputs": [
        {
          "internalType": "address",
          "name": "owner",
          "type": "address"
        }
      ],
      "name": "OwnableInvalidOwner",
      "type": "error"
    },
    {
      "inputs": [
        {
          "internalType": "address",
          "name": "account",
          "type": "address"
        }
      ],
      "name": "OwnableUnauthorizedAccount",
      "type": "error"
    },
    {
      "anonymous": false,
      "inputs": [
        {
          "indexed": true,
          "internalType": "address",
          "name": "previousOwner",
          "type": "address"
        },
        {
          "indexed": true,
          "internalType": "address",
          "name": "newOwner",
          "type": "address"
        }
      ],
      "name": "OwnershipTransferred",
      "type": "event"
    },
    {
      "anonymous": false,
      "inputs": [
        {
          "indexed": true,
          "internalType": "uint256",
          "name": "pluginId",
          "type": "uint256"
        },
        {
          "indexed": true,
          "internalType": "address",
          "name": "pluginAddress",
          "type": "address"
        }
      ],
      "name": "PluginAdded",
      "type": "event"
    },
    {
      "anonymous": false,
      "inputs": [
        {
          "indexed": true,
          "internalType": "uint256",
          "name": "pluginId",
          "type": "uint256"
        },
        {
          "indexed": false,
          "internalType": "uint256",
          "name": "input",
          "type": "uint256"
        },
        {
          "indexed": false,
          "internalType": "uint256",
          "name": "result",
          "type": "uint256"
        }
      ],
      "name": "PluginExecuted",
      "type": "event"
    },
    {
      "anonymous": false,
      "inputs": [
        {
          "indexed": true,
          "internalType": "uint256",
          "name": "pluginId",
          "type": "uint256"
        }
      ],
      "name": "PluginRemoved",
      "type": "event"
    },
    {
      "anonymous": false,
      "inputs": [
        {
          "indexed": true,
          "internalType": "uint256",
          "name": "pluginId",
          "type": "uint256"
        },
        {
          "indexed": true,
          "internalType": "address",
          "name": "newPluginAddress",
          "type": "address"
        }
      ],
      "name": "PluginUpdated",
      "type": "event"
    },
    {
      "inputs": [
        {
          "internalType": "address",
          "name": "pluginAddress",
          "type": "address"
        }
      ],
      "name": "addPlugin",
      "outputs": [
        {
          "internalType": "uint256",
          "name": "",
          "type": "uint256"
        }
      ],
      "stateMutability": "nonpayable",
      "type": "function"
    },
    {
      "inputs": [
        {
          "internalType": "uint256",
          "name": "pluginId",
          "type": "uint256"
        },
        {
          "internalType": "uint256",
          "name": "input",
          "type": "uint256"
        }
      ],
      "name": "executePlugin",
      "outputs": [
        {
          "internalType": "uint256",
          "name": "",
          "type": "uint256"
        }
      ],
      "stateMutability": "nonpayable",
      "type": "function"
    },
    {
      "inputs": [
        {
          "internalType": "uint256",
          "name": "pluginId",
          "type": "uint256"
        }
      ],
      "name": "getPluginAddress",
      "outputs": [
        {
          "internalType": "address",
          "name": "",
          "type": "address"
        }
      ],
      "stateMutability": "view",
      "type": "function"
    },
    {
      "inputs": [],
      "name": "getPluginCount",
      "outputs": [
        {
          "internalType": "uint256",
          "name": "",
          "type": "uint256"
        }
      ],
      "stateMutability": "view",
      "type": "function"
    },
    {
      "inputs": [],
      "name": "owner",
      "outputs": [
        {
          "internalType": "address",
          "name": "",
          "type": "address"
        }
      ],
      "stateMutability": "view",
      "type": "function"
    },
    {
      "inputs": [
        {
          "internalType": "uint256",
          "name": "pluginId",
          "type": "uint256"
        }
      ],
      "name": "removePlugin",
      "outputs": [],
      "stateMutability": "nonpayable",
      "type": "function"
    },
    {
      "inputs": [],
      "name": "renounceOwnership",
      "outputs": [],
      "stateMutability": "nonpayable",
      "type": "function"
    },
    {
      "inputs": [
        {
          "internalType": "address",
          "name": "newOwner",
          "type": "address"
        }
      ],
      "name": "transferOwnership",
      "outputs": [],
      "stateMutability": "nonpayable",
      "type": "function"
    },
    {
      "inputs": [
        {
          "internalType": "uint256",
          "name": "pluginId",
          "type": "uint256"
        },
        {
          "internalType": "address",
          "name": "newPluginAddress",
          "type": "address"
        }
      ],
      "name": "updatePlugin",
      "outputs": [],
      "stateMutability": "nonpayable",
      "type": "function"
    }
  ],
  "bytecode": "0x608060405234801561001057600080fd5b50338061003757604051631e4fbdf760e01b81526000600482015260240160405180910390fd5b61004081610046565b50610096565b600080546001600160a01b038381166001600160a01b0319831681178455604051919092169283917f8be0079c531659141344cd1fd0a4f28419497f9722a3daafe3b4186f6b6457e09190a35050565b61078e806100a56000396000f3fe608060405234801561001057600080fd5b50600436106100935760003560e01c806372ceb3711161006657806372ceb371146100df5780638da5cb5b146100f2578063d8867fc814610117578063e74f24001461012a578063f2fde38b1461015357600080fd5b80632bd8ec4a146100985780632f9de2c2146100af57806337475aae146100c4578063715018a6146100d7575b600080fd5b6002545b6040519081526020015b60405180910390f35b6100c26100bd36600461060a565b610166565b005b6100c26100d2366004610636565b61028f565b6100c2610311565b61009c6100ed36600461064f565b610325565b6000546001600160a01b03165b6040516001600160a01b0390911681526020016100a6565b61009c610125366004610671565b61040e565b6100ff610138366004610636565b6000908152600160205260409020546001600160a01b031690565b6100c2610161366004610671565b61051b565b61016e610559565b6000828152600160205260409020546001600160a01b03166101ab5760405162461bcd60e51b81526004016101a290610693565b60405180910390fd5b6001600160a01b0381166102115760405162461bcd60e51b815260206004820152602760248201527f436f72653a206e657720706c7567696e20616464726573732063616e6e6f74206044820152666265207a65726f60c81b60648201526084016101a2565b61021a81610586565b6102365760405162461bcd60e51b81526004016101a2906106ca565b60008281526001602052604080822080546001600160a01b0319166001600160a01b0385169081179091559051909184917fbe7b6da119e2aa0902b74bd29b95bfe856215c95f8766824f2cb2eaebf5aa5be9190a35050565b610297610559565b6000818152600160205260409020546001600160a01b03166102cb5760405162461bcd60e51b81526004016101a290610693565b60008181526001602052604080822080546001600160a01b03191690555182917ff1eee53e8b3359d2edff9ad67d105fc65cc530701d0e8753a333188b46d7f77591a250565b610319610559565b61032360006105a3565b565b6000828152600160205260408120546001600160a01b03168061035a5760405162461bcd60e51b81526004016101a290610693565b604051637802039d60e11b8152600481018490526000906001600160a01b0383169063f004073a906024016020604051808303816000875af11580156103a4573d6000803e3d6000fd5b505050506040513d601f19601f820116820180604052508101906103c89190610718565b604080518681526020810183905291925086917f7f685f55905d672c2e2800240885a73eefd0a1abd89345fbe424be7ab2da1c7f910160405180910390a2949350505050565b6000610418610559565b6001600160a01b03821661047a5760405162461bcd60e51b815260206004820152602360248201527f436f72653a20706c7567696e20616464726573732063616e6e6f74206265207a60448201526265726f60e81b60648201526084016101a2565b61048382610586565b61049f5760405162461bcd60e51b81526004016101a2906106ca565b60028054600081815260016020526040812080546001600160a01b0319166001600160a01b03871617905582549192906104d883610731565b90915550506040516001600160a01b0384169082907f7573dd55c5ebcd09af313407c5627fa61cbc548542f4c66a55278d889e07c8bf90600090a390505b919050565b610523610559565b6001600160a01b03811661054d57604051631e4fbdf760e01b8152600060048201526024016101a2565b610556816105a3565b50565b6000546001600160a01b031633146103235760405163118cdaa760e01b81523360048201526024016101a2565b6000813b80820361059a5750600092915050565b50600192915050565b600080546001600160a01b038381166001600160a01b0319831681178455604051919092169283917f8be0079c531659141344cd1fd0a4f28419497f9722a3daafe3b4186f6b6457e09190a35050565b80356001600160a01b038116811461051657600080fd5b6000806040838503121561061d57600080fd5b8235915061062d602084016105f3565b90509250929050565b60006020828403121561064857600080fd5b5035919050565b6000806040838503121561066257600080fd5b50508035926020909101359150565b60006020828403121561068357600080fd5b61068c826105f3565b9392505050565b6020808252601b908201527f436f72653a20706c7567696e20646f6573206e6f742065786973740000000000604082015260600190565b6020808252602e908201527f436f72653a2061646472657373206d75737420696d706c656d656e742049506c60408201526d7567696e20696e7465726661636560901b606082015260800190565b60006020828403121561072a57600080fd5b5051919050565b60006001820161075157634e487b7160e01b600052601160045260246000fd5b506001019056fea2646970667358221220f93acae1079805f68b22ced665e157693d7ec17fe481ed5acba83e382cdebdb464736f6c63430008140033",
  "linkReferences": {},
  "deployedLinkReferences": {}
}