{
  "_format": "hh-sol-artifact-1",
  "contractName": "VaultPlugin",
  "sourceName": "contracts/VaultPlugin.sol",
  "abi": [
    {
      "anonymous": false,
      "inputs": [
        {
          "indexed": false,
          "internalType": "uint256",
          "name": "input",
          "type": "uint256"
        },
        {
          "indexed": false,
          "internalType": "uint256",
          "name": "result",
          "type": "uint256"
        }
      ],
      "name": "ActionPerformed",
      "type": "event"
    },
    {
      "anonymous": false,
      "inputs": [
        {
          "indexed": true,
          "internalType": "uint256",
          "name": "vaultId",
          "type": "uint256"
        },
        {
          "indexed": true,
          "internalType": "address",
          "name": "owner",
          "type": "address"
        },
        {
          "indexed": false,
          "internalType": "uint256",
          "name": "initialBalance",
          "type": "uint256"
        }
      ],
      "name": "VaultCreated",
      "type": "event"
    },
    {
      "inputs": [
        {
          "internalType": "uint256",
          "name": "initialBalance",
          "type": "uint256"
        }
      ],
      "name": "createVaultDirect",
      "outputs": [
        {
          "internalType": "uint256",
          "name": "",
          "type": "uint256"
        }
      ],
      "stateMutability": "nonpayable",
      "type": "function"
    },
    {
      "inputs": [],
      "name": "getVaultCount",
      "outputs": [
        {
          "internalType": "uint256",
          "name": "",
          "type": "uint256"
        }
      ],
      "stateMutability": "view",
      "type": "function"
    },
    {
      "inputs": [
        {
          "internalType": "uint256",
          "name": "vaultId",
          "type": "uint256"
        }
      ],
      "name": "getVaultInfo",
      "outputs": [
        {
          "internalType": "address",
          "name": "owner",
          "type": "address"
        },
        {
          "internalType": "uint256",
          "name": "balance",
          "type": "uint256"
        },
        {
          "internalType": "bool",
          "name": "isActive",
          "type": "bool"
        },
        {
          "internalType": "uint256",
          "name": "creationTime",
          "type": "uint256"
        }
      ],
      "stateMutability": "view",
      "type": "function"
    },
    {
      "inputs": [
        {
          "internalType": "uint256",
          "name": "input",
          "type": "uint256"
        }
      ],
      "name": "performAction",
      "outputs": [
        {
          "internalType": "uint256",
          "name": "",
          "type": "uint256"
        }
      ],
      "stateMutability": "nonpayable",
      "type": "function"
    }
  ],
  "bytecode": "0x608060405234801561001057600080fd5b50610387806100206000396000f3fe608060405234801561001057600080fd5b506004361061004b5760003560e01c8062a294901461005057806374d4e49114610076578063b1ba96201461007e578063f004073a146100c1575b600080fd5b61006361005e366004610311565b6100d4565b6040519081526020015b60405180910390f35b600154610063565b61009161008c366004610311565b6100e6565b604080516001600160a01b039095168552602085019390935290151591830191909152606082015260800161006d565b6100636100cf366004610311565b610185565b60006100e033836101d4565b92915050565b600080600080600154851061014c5760405162461bcd60e51b815260206004820152602160248201527f5661756c74506c7567696e3a207661756c7420646f6573206e6f7420657869736044820152601d60fa1b60648201526084015b60405180910390fd5b5050506000918252506020819052604090208054600182015460028301546003909301546001600160a01b0390921693909260ff169190565b60008061019233846101d4565b60408051858152602081018390529192507fd13d5694c0f3c0d4f057e82e8626c2d514ec5278c36c4361b63a9a8ff627d9b4910160405180910390a192915050565b60006001600160a01b03831661023e5760405162461bcd60e51b815260206004820152602960248201527f5661756c74506c7567696e3a206f776e65722063616e6e6f74206265207a65726044820152686f206164647265737360b81b6064820152608401610143565b60018054604080516080810182526001600160a01b03878116825260208083018881528385018781524260608601908152600088815293849052958320945185546001600160a01b03191694169390931784555183870155905160028301805460ff1916911515919091179055915160039091015582549192906102c18361032a565b9190505550836001600160a01b0316817f03df5debf149a655d99b46048402562ab27f668db5dc618f6c4dc92e3a6d10128560405161030291815260200190565b60405180910390a39392505050565b60006020828403121561032357600080fd5b5035919050565b60006001820161034a57634e487b7160e01b600052601160045260246000fd5b506001019056fea2646970667358221220c39919d9ee0770bcc1f719323a763611707f3e83cbd627de958ded433894879464736f6c63430008140033",
  "linkReferences": {},
  "deployedLinkReferences": {}
}